:100000000C9467000C948F000C948F000C94F51ED8
:100010000C94F51E0C94F51E0C948F000C94F6288D
:100020000C948F000C948F000C948F000C94701320
:100030000C948F000C948F000C948F000C948F0004
:100040000C94D1210C948F000C94A5250C94D725E9
:100050000C948F000C948F000C948F000C948F00E4
:100060000C943F180C948F0000000008000201005F
:100070000003040700000000000000000102040863
:100080001020408001020408102001020408102002
:10009000040404040404040402020202020203032E
:1000A00003030303000000002300260029000000D2
:1000B0000000250028002B0000000000240027007D
:1000C0002A00020055045D17531C912007261124B5
:1000D0001FBECFEFD8E0DEBFCDBF12E0A0E0B1E0A1
:1000E000E8E6F2E602C005900D92A63CB107D9F70A
:1000F00026E0A6ECB2E001C01D92A93FB207E1F7ED
:1001000010E0CEECD0E004C02297FE010E94F02D5A
:10011000C43CD107C9F70E944B260C9432310C9491
:100120000000CF92DF92EF92FF920F931F93E82F80
:10013000F92F05C0015011092109310961F19081A0
:1001400096239417B9F305C001501109210931090B
:1001500011F1908196239413F7CFC12CD12CE12C6F
:10016000F12C0AC08FEFC81AD80AE80AF80A0C1551
:100170001D052E053F0579F080818623841791F3B4
:100180006C2D7D2D8E2D9F2D1F910F91FF90EF9047
:10019000DF90CF90089560E070E080E090E01F91E4
:1001A0000F91FF90EF90DF90CF900895833008F08B
:1001B00062C0482F440F440F440F485F473108F096
:1001C00046E1582F550F550F550F90E071E0541729
:1001D000E8F42EEF250F2231B0F4E52FF0E0DF0137
:1001E000AF5BBC4F2C91223070F4972BEE0FFF1FAA
:1001F000EE5EFC4F21E030E0A72FA62311F420E0B3
:1002000030E031832083770F5F5FE1CF81110AC037
:100210009C7FF8942BB1892F809582239623892B7C
:100220008BB928C08130C9F46923F89425B1892F8E
:100230008F7380958223262F2F73822B85B988B1E7
:10024000629566956695637092959695969593706E
:1002500090959823692B68B90DC09F70F89428B1C8
:10026000892F880F880F809582236923660F660F78
:10027000862B88B978940895FF920F931F93CF939C
:10028000DF93F82EEB0185E18F1508F43FC060E1A4
:1002900071E08FE593E00E94E1200F2D10E0F8015E
:1002A000EF5BFC4F8081833089F564E271E08FE57C
:1002B00093E00E94E1204F2D50E060E070E020E1EB
:1002C00030E08FE593E00E94AE2120E130E0AE0106
:1002D000662757FD6095762F8FE593E00E94AE214B
:1002E00083E0F81641F08BEF8F0D823020F087EF1E
:1002F0008F0D833020F4BE018F2D0E94D522F8018E
:10030000EE0FFF1FEE5EFC4FD183C083DF91CF91D4
:100310001F910F91FF900895CF93C82F883058F503
:1003200040915D0350915E0321E030E0082E02C051
:10033000220F331F0A94E2F7672B49F4209530957A
:100340002423352330935E0320935D0314C0242BB4
:10035000352B30935E0320935D038091C60281119B
:100360000AC08C2F0E94B822AC016C2F87E195E067
:10037000CF910C94A21ACF9108951F93CF93DF933E
:10038000162FC82FD0E0FE01E25CFC4F90811923AC
:10039000C95ADC4F411103C09881911741F0412F98
:1003A00050E0682F87E195E00E94BB1A1883DF9127
:1003B000CF911F910895833020F5282F30E0F90167
:1003C000E65AFC4F6083672BE1F0F901E25CFC4FD9
:1003D0009081811103C069B16C7F0FC0813049F4F5
:1003E00063B126B140E4249F900111246F73622B06
:1003F00004C066B16C7366956695692341E00C9400
:10040000BD01089580915A03882349F069B1809114
:100410003E0368236C7F40E080E00E94BD01809134
:100420005B03882379F063B186B120E4829FC00129
:1004300011246F73682B80913F03682340E081E0B3
:100440000E94BD0180915C03882359F066B16C73F2
:100450006695669580914003682340E082E00C94A5
:10046000BD010895CF93DF93C82FD62F61E00E947E
:100470005D2360E08D2F0E945D2360E08C2F0E9441
:10048000962382E090E00E94722261E08C2F0E940D
:1004900096238AE090E00E94722260E08C2F0E94F6
:1004A000962320E432E44FE050E061E08D2F0E947B
:1004B000F5232AE330E040E050E00E946B2DCA01B2
:1004C000B901DF91CF9108950F931F93CF93DF93DD
:1004D0001F92CDB7DEB7682F70E08E010F5F1F4F00
:1004E000C8010E94181410937103009370030F90B9
:1004F000DF91CF911F910F9108951092C9028FEF54
:1005000080930A010895AF92BF92DF92EF92FF921B
:100510000F931F93CF93DF931F92CDB7DEB7D82EE3
:100520005B01E82EF12C87010F5B1C4FF8018081E5
:100530008F3709F4AFC0863049F48091C90288230F
:1005400029F06630710511F00E947D0242EF4D0DD9
:10055000483068F461E070E082E0A816B10411F060
:1005600060E070E0842F49830E948C0149819EEFF6
:100570009D0D9231D8F4ED2DE695E695E6958D2DFD
:100580008770F0E0E25CFC4F21E030E0082E01C013
:10059000220F0A94EAF7A114B10421F48081822B7E
:1005A000808304C02095808128232083F701EE0FEB
:1005B000FF1FEE5EFC4F11821082E2E0AE16B10426
:1005C00091F03CF4A114B104E9F0AA94AB2841F1F4
:1005D00051C0E3E0AE16B10479F1F6E0AF16B10414
:1005E00009F440C047C0483008F054C0923140F48C
:1005F00060E08D2D0E945D2360E08D2D0E9496238A
:1006000082E035C0923108F045C060E08D2D0E9437
:100610005D2360E08D2D0E949623F80110823AC080
:100620009231C0F560E08D2D0E94962361E08D2D02
:100630000E945D2381E01BC0F3E0DF1641F08BEFE9
:100640008D0D823020F087EF8D0D833018F561E03D
:100650008D2D0E945D2360E070E08D2D0E94D522DB
:1006600083E005C08EEE8D0D8230A0F486E0F801A7
:10067000808310C068E271E087E195E00F90DF9120
:10068000CF911F910F91FF90EF90DF90BF90AF90AF
:100690000C94311B0F90DF91CF911F910F91FF9020
:1006A000EF90DF90BF90AF900895CF93C0E08EEEB3
:1006B0008C0F823028F466E070E08C2F0E94830259
:1006C000CF5FC631A1F781E08093C90287E594E04E
:1006D000CF910C942117CF9381E08093C602809133
:1006E000C90281110E947D0210925A0310923E03AA
:1006F0001092570310925B0310923F03109258031D
:1007000010925C031092400310925903C0E084EFF2
:100710008C0F823060F082EF8C0F883018F462E02A
:1007200070E002C061E070E08C2F0E948302CF5F16
:10073000C63169F710925E0310925D031092C602F3
:10074000CF91089526E040E051EE60E070E083E450
:1007500096E00E94432569E371E083E496E00E94FD
:10076000A02640E051EE60E070E087E195E00E9455
:10077000A51924E042E062E471E087E195E00E947F
:10078000CA194CE351E060EE87E195E00E943F1BFF
:1007900046ED50E060E987E195E00E943F1B4CE8A0
:1007A00051E060EC87E195E00E943F1B4BED51E08A
:1007B00060ED87E195E00E943F1B43E852E064EF63
:1007C00087E195E00E943F1B46ED54E060EF87E132
:1007D00095E00E946A1B4BE653E06FEF87E195E0DE
:1007E0000E94621B0E946B0367E671E08FE593E055
:1007F0000E94E12065E771E083E496E00C94A02676
:10080000CF92DF92EF92FF92CF93DF9380917003AC
:1008100090917103009709F441C060E673E00E9473
:10082000F014892BD9F1C0906403D0906503E09057
:100830006603F090670320E130E0B701A6018FE581
:1008400093E00E94AE2160EF87E195E00E94351BA6
:10085000C8E1D0E0C701B6010C2E04C0969587957B
:10086000779567950A94D2F787E195E00E94351B4A
:100870002897C83F8FEFD80769F767EF87E195E0C2
:100880000E94351B8091700390917103DF91CF918D
:10089000FF90EF90DF90CF900C943A14DF91CF91BE
:1008A000FF90EF90DF90CF90089584E793E00E944F
:1008B0002A1D60E08FE593E00C94CF20682F87E538
:1008C00094E00C94E21687E594E00E949216089555
:1008D000DF92EF92FF920F931F93CF93DF93F82E47
:1008E000EB01D42E6F3F8FEF7807A9F06F2D87E5CE
:1008F00094E00E943B178C2F0E945E0487E594E0F1
:100900000E945A178091C7029091C802009729F05F
:100910000E94722202C0C0E0D0E04D2D6F2D87E50D
:1009200094E00E9438170D2D10E087E594E00E94B6
:100930008A16081719071CF46EE771E009C087E5ED
:1009400094E00E948A168017910734F46BE971E0F5
:1009500087E195E00E94311BF092CA02C093CB025E
:100960006CECE62E62E0F62EC0E0D0E0C017D107B6
:1009700084F042E04D0D2AEC32E067E787E195E034
:10098000DF91CF911F910F91FF90EF90DF900C942A
:10099000E91A87E594E00E948A16892B51F30E9498
:1009A0006304F70181937F012196E0CF4F925F921C
:1009B0006F927F92AF92BF92CF92DF92EF92FF92AF
:1009C0000F931F93CF93DF93CDB7DEB768970FB622
:1009D000F894DEBF0FBECDBF182F062F5A0168EB6B
:1009E00072E0CE0143960E94C0291B3609F4C9C3A8
:1009F00008F050C0133009F470C0D8F5113009F078
:100A000085C4D50111966C9111976F708C918F7080
:100A10000E943202AB01BC012AE0CE0101960E9485
:100A2000672ABE016F5F7F4FCE0143960E94D62991
:100A3000CE0101960E94522960EF87E195E00E9465
:100A4000351B61E087E195E00E94351BF50160816F
:100A50006F7087E195E00E94351BD50111966C916E
:100A60006F7087E195E00E94351B1F89E12CF12C06
:100A700023C01430C9F1193609F048C460EF87E18A
:100A800095E00E94351B6AE687E195E00E94351BE0
:100A900012EF38C4163709F42EC238F41D3609F4A3
:100AA000DAC31F3609F426C331C4183709F4F1C27A
:100AB0001A3709F405C32AC4E11608F09FC1B7012B
:100AC000CE0143960E94E42A682F87E195E00E94B8
:100AD000351BBFEFEB1AFB0AEFCF60EF87E195E024
:100AE0000E94351B63E07CC1F5018081883009F4E8
:100AF000CAC008F048C0843009F44EC0873009F0FD
:100B000005C4118140E16281CE0101960E940E2A46
:100B1000CE0101960E94102B2B013C01CE010196C3
:100B20000E94522940E1F5016381CE0101960E94A5
:100B30000E2ACE0101960E94102B24E6249D60010E
:100B4000259DD00C1124EE24D7FCE094FE2CC60E7B
:100B5000D71EE81EF91ECE0101960E945229D5012A
:100B600014960C9161E0812F0E945D23B4E60B9FE7
:100B700090011124442737FD4095542FB601812F51
:100B80000E94B226C3C38A3009F43EC108F4A2C051
:100B90008B3009F467C1BAC3618189E793E00E9491
:100BA000FB1C60EF87E195E00E94351B64E087E164
:100BB00095E00E94351B64E087E195E00E94351BBB
:100BC000F501618187E195E00E94351B20E030E06E
:100BD00048EC52E460917D0370917E0380917F0325
:100BE000909180030E94D02C0E94ED2B4AE0CE0110
:100BF00007960E943B2A20E030E048EC52E46091E6
:100C0000790370917A0380917B0390917C030E9419
:100C1000D02C0E94ED2B4AE0CE010D960E943B2A7B
:100C2000BE01635F7F4FCE0101960E94ED29BE0198
:100C3000695F7F4FCE0101960E94C02ABC01CE01A0
:100C400043960E94D629CE0101960E945229CE01D8
:100C50000D960E945229CE0107960E9452291F89A3
:100C6000E12CF12CE11608F0C9C0B701CE01439682
:100C70000E94E42A682F87E195E00E94351BFFEF70
:100C8000EF1AFF0AEFCFF50181818130B1F060F0FA
:100C90008230D9F0833009F039C3F501628184E7ED
:100CA00093E00E945C1D32C301E024814381628194
:100CB00084E793E00E94601D29C3B5016E5F7F4FFA
:100CC00084E793E00E94DA1D21C384E793E00E9449
:100CD000F11D1CC367EB71E08FE593E00E94E120FA
:100CE000D50112967C9012971396CC90D12CE12CC2
:100CF000F12C84E090E0FE2CED2CDC2CCC24F501D2
:100D0000E80FF91F2081C22A01968730910599F7D3
:100D1000F5018181843009F05DC063EC71E08FE5FD
:100D200093E00E94E120672D8FE593E00E948A21E5
:100D300069EC71E08FE593E00E94E120D501139604
:100D40004C9150E060E070E020E130E08FE593E00E
:100D50000E94AE21F501448150E060E070E020E1A6
:100D600030E08FE593E00E94AE21D50115964C91BD
:100D700050E060E070E020E130E08FE593E00E9419
:100D80003021F501468150E060E070E020E130E084
:100D90008FE593E00E94AE216FEC71E08FE593E068
:100DA0000E94D22020E130E0B701A6018FE593E058
:100DB0000E94AE21272D30E0B701A60188E793E01D
:100DC0000E94190D8091700390917103009711F0AA
:100DD0000E941D1460EF87E195E00E94351B69E0D9
:100DE00087E195E00E94351B6FE487E195E00E9462
:100DF000351B6BE487E195E00E94351B67EF87E1C7
:100E000095E00E94351B82C28181882371F0813078
:100E100009F07CC26AEE71E08FE593E00E94E12068
:100E2000109271031092700371C264ED71E08FE54E
:100E300093E00E94D220F501428150E060E070E032
:100E400020E130E08FE593E00E94AE21D5011296BB
:100E50008C910E94640280917003909171030E94B2
:100E60001D1454C2F5018181813059F1A8F08230FE
:100E7000A9F1833009F04AC266E272E08FE593E09F
:100E80000E94E120D50112966C918091720390919D
:100E900073030E948E203AC26EEF71E08FE593E0FB
:100EA0000E94E12081E090E00E945A267C010E948D
:100EB0008620F0927303E0927203C7010E9495208E
:100EC00025C26CE072E08FE593E00E94E120809102
:100ED0007203909173030E94872018C26BE172E045
:100EE0008FE593E00E94E12080917203909173035B
:100EF0000E948B200BC2F5018181982F987185FF8C
:100F000003C066E372E050C08081983041F148F43C
:100F10009111FCC1682F87E594E00E943B1712E015
:100F200006C09031D9F1983109F470C0EFC11017A3
:100F300068F4F501E10FF11D91818081B0E89B9F7C
:100F4000801911240E945E041E5FF1CF87E594E0B2
:100F50000E945A1786E490E00E947222D7C1F501E0
:100F600042816381063089F4F0E86F9FB00111245B
:100F7000640F711DD50115969C91159714964C918F
:100F8000B0E89B9F4019112406C0E0E86E9F40190D
:100F900011246FEF7FEF0E946804B8C1E0910A014D
:100FA000E7303CF066E572E087E195E00E94311B96
:100FB000ADC1D50112969C91129713962C910630D3
:100FC00089F4B0E82B9F90011124290F311DD50120
:100FD00015964C91159714969C91B0E84B9F9019DB
:100FE000112406C0F0E82F9F901911242FEF3FEF36
:100FF000EF5FE0930A0144E0E402F0011124E651BE
:10100000FD4F808332832183938380C150910A01F5
:10101000151634F440E0252F332727FD30950EC0F8
:101020008FEF80930A0172C1EE0FFF1FEE0FFF1FBB
:10103000E651FD4F9081981719F14F5FE42FF0E0D2
:101040002E173F078CF740E01BC04830C0F4DF018B
:10105000AA0FBB1FAA0FBB1FA251BD4F8C91EE0F51
:10106000FF1FEE0FFF1FE651FD4F808311968D91FC
:101070009C9112979283818313968C9183834F5F07
:10108000E42FF0E02E173F0704F7515050930A0168
:101090003DC1D5012C9111968C91B0E88B9FC00178
:1010A0001124820F911D009721F09093C802809324
:1010B000C7028091C902811129C10E94550326C12E
:1010C000023008F423C1F50120818181F0E88F9F6F
:1010D000C0011124820F911D90930C0180930B018C
:1010E0000A9708F013C18AE090E090930C01809376
:1010F0000B010CC167E672E08FE593E00E94E120EE
:10110000023008F403C1D5011196EC901197F12C2F
:101110000230A1F012968C91B0E88B9FC00111248F
:10112000E82AF92A033051F0F501838190E090E438
:10113000899F902D88271124E82AF92A65EE71E00D
:101140008FE593E00E94D220D5016C918FE593E06A
:101150000E948A216AE772E08FE593E00E94D22024
:10116000A701662757FD6095762F20E130E08FE5D7
:1011700093E00E94AE21B701F50180810E943C01FD
:10118000C5C060EF87E195E00E94351B6CE687E102
:1011900095E00E94351B1EEF84EF810F883058F4D4
:1011A00062E087E195E00E94351B6AE087E195E007
:1011B0000E94351B0DC0113059F463E087E195E0C2
:1011C0000E94351B68E087E195E00E94351B08C04E
:1011D0008DEF810F823088F389EF810F833068F3C0
:1011E000123150F464E087E195E00E94351B6EE017
:1011F00087E195E00E94351B80EF810F823050F42B
:1012000066E087E195E00E94351B61E087E195E0AB
:101210000E94351B6FE787E195E00E94351B1F5F39
:10122000143109F4EBCD123108F0B6CF60E087E15C
:1012300095E00E94351B61E087E195E00E94351B37
:1012400061E087E195E00E94351B61E087E195E070
:101250000E94351BA1CF002309F458C0D5010C9181
:1012600060EF87E195E00E94351B6EE687E195E02F
:101270000E94351B602F87E195E00E94351B0631E7
:1012800008F0BCCD10E0F801EF5BFC4F608187E116
:1012900095E00E94351B000F111FF801EE5EFC4F18
:1012A0007F0160816F7787E195E00E94351BD70150
:1012B0006D917C91CB018078892B49F0660F672F67
:1012C000661F770B6F7787E195E00E94351BF80169
:1012D000EE5EFC4F60817181CB018827907C892B69
:1012E00009F48CCD770F660B770F762F661F6F771B
:1012F00081CD612F87E195E00E94351B1F5F18307B
:1013000009F47CCD1830A8F36FE7F4CFCE014396F3
:101310000E94522968960FB6F894DEBF0FBECDBF6B
:10132000DF91CF911F910F91FF90EF90DF90CF90C1
:10133000BF90AF907F906F905F904F9008958F9285
:101340009F92AF92BF92CF92DF92EF92FF920F9354
:101350001F93CF93DF930E9402020E94000487E153
:1013600095E00E942A1A892B29F087E195E00E94D6
:10137000951BF5CF0E941B2260930E0370930F0301
:101380008093100390931103C0900A03D0900B0335
:10139000E0900C03F0900D0340910B0150910C0173
:1013A0004A01A12CB12C8B019C010C191D092E099D
:1013B0003F0980169106A206B30608F04CC0D5017D
:1013C000C4018C0D9D1DAE1DBF1D80930A0390931B
:1013D0000B03A0930C03B0930D03C1E4D3E012EF11
:1013E0001830C0F488818230A9F420915D033091D7
:1013F0005E03012E02C0359527950A94E2F720FF7F
:1014000009C0812F0E94B822AC01612F87E195E0CD
:101410000E94A21A1F5F2196183011F780910A01CD
:1014200087FD19C0C0E0EC2FF0E080910A019927F8
:1014300087FD90958E179F0774F0EE0FFF1FEE0F3C
:10144000FF1FE651FD4F61817281438180810E94BF
:101450006804CF5FE8CFDF91CF911F910F91FF908C
:10146000EF90DF90CF90BF90AF909F908F900895B6
:10147000AF92BF92CF92DF92EF92FF920F931F93A2
:10148000CF93DF93EB0180918903883510F480E0DE
:1014900075C0EA85FB858281938160E672E20E94D5
:1014A000B415892BA1F3EA85FB858481958164E9D4
:1014B00071E10E94FC15892B51F3BEE1CB2ED12C9A
:1014C0001DE1E12EF12C00E010E08091890390E015
:1014D0000497E816F906C4F5EA85FB85C701880F6D
:1014E000991FE80FF91F8081918164EF71E00E94DC
:1014F000B415892B61F25601AA0CBB1CEA85FB8549
:10150000EA0DFB1D8081918168E572E00E94FC1567
:10151000892B21F0000F111F01600EC0EA85FB85A9
:10152000EA0DFB1D8081918164EA76E00E94FC1542
:10153000892B49F0000F111F82E0E80EF11C82E0B8
:10154000C80ED11CC2CF760181E0E81AF108F594EB
:10155000E794F986E8868AE2E816F1040CF497CF5E
:10156000C801AA2797FDA095BA2F8C839D83AE83CF
:10157000BF8389E090E09983888381E0DF91CF91F8
:101580001F910F91FF90EF90DF90CF90BF90AF90A1
:101590000895AF92BF92CF92DF92EF92FF920F9396
:1015A0001F93CF93DF93EB0180918903803211F079
:1015B00080E05FC0EA85FB85828193816CE271E007
:1015C0000E94B415892BA1F3EA85FB85848195815E
:1015D0006EEE72E00E94FC15892B51F306E010E0DC
:1015E000C12CD12C7601EA85FB85E00FF11F8081AB
:1015F00091816CE271E00E94B415892BC9F2580107
:1016000082E0A80EB11CEA85FB85EA0DFB1D8081F6
:10161000918168E077E00E94FC15892B39F0CC0CB1
:10162000DD1CEE1CFF1C6894C0F811C0EA85FB8528
:10163000EA0DFB1D808191816EEE72E00E94FC1527
:10164000892B09F4B5CFCC0CDD1CEE1CFF1C0C5F04
:101650001F4F0E33110539F68EE090E09987888789
:10166000CC82DD82EE82FF828FE090E099838883D6
:1016700081E0DF91CF911F910F91FF90EF90DF906C
:10168000CF90BF90AF900895AF92BF92CF92DF926C
:10169000EF92FF920F931F93CF93DF93EB01809113
:1016A0008903823261F5EA85FB858281938168E551
:1016B00072E00E94B415892B11F18091890390E0AA
:1016C00081509048880F991FEA85FB85E80FF91F24
:1016D0008081918168E572E00E94B415892B79F0D0
:1016E000198618868FEF9FEFDC018C839D83AE8374
:1016F000BF8386E090E09983888381E073C0EA85A8
:10170000FB858281938160E47FE10E94B415892B7F
:1017100021F080918903813210F480E063C0EA8572
:10172000FB858481958160EA7FE00E94FC15892B0E
:10173000A1F358E0A52EB12C03E010E0C12CD12C70
:101740007601EA85FB85C801880F991FE80FF91F0C
:101750008081918168E572E00E94B415892BE9F2DD
:10176000EA85FB85EA0DFB1D8081918160E476E0CE
:101770000E94FC15892B39F0CC0CDD1CEE1CFF1CE3
:101780006894C0F811C0EA85FB85EA0DFB1D8081D5
:10179000918166E272E00E94FC15892B09F4BDCFAD
:1017A000CC0CDD1CEE1CFF1C0E5F1F4F84E0A80E4E
:1017B000B11C0332110529F6EA85FB85EA5BFF4F70
:1017C0008081918168E572E00E94B415892B09F44B
:1017D000A4CF80E190E099878887CC82DD82EE8279
:1017E000FF8287CFDF91CF911F910F91FF90EF90F4
:1017F000DF90CF90BF90AF900895AF92BF92CF92FD
:10180000DF92EF92FF920F931F93CF93DF93EB0141
:1018100080918903893310F480E071C0EA85FB85EB
:101820008281938160E47FE10E94B415892BA1F34A
:10183000EA85FB858481958160EA7FE00E94FC1542
:10184000892B51F338E0A32EB12C03E010E0C12C1A
:10185000D12C7601EA85FB85C801880F991FE80F16
:10186000F91F8081918168E572E00E94B415892B8F
:1018700099F2EA85FB85EA0DFB1D8081918160E488
:1018800076E00E94FC15892B39F0CC0CDD1CEE1C97
:10189000FF1C6894C0F811C0EA85FB85EA0DFB1DAA
:1018A0008081918166E272E00E94FC15892B09F427
:1018B000B3CFCC0CDD1CEE1CFF1C0E5F1F4F84E071
:1018C000A80EB11C0B33110529F6EA85FB85EA58F1
:1018D000FF4F8081918168E572E00E94B415892BE9
:1018E00009F49ACF8CE190E099878887CC82DD82D9
:1018F000EE82FF828AE090E09983888381E0DF9125
:10190000CF911F910F91FF90EF90DF90CF90BF90FC
:10191000AF9008956F927F928F929F92AF92BF92F5
:10192000CF92DF92EF92FF920F931F93CF93DF93AB
:10193000EB0180918903823208F461C0EA85FB855E
:10194000828193816EE571E00E94B415892B09F4C0
:1019500056C063E0A62EB12C02E010E0C12CD12CC1
:10196000760135018091890390E0A816B906E4F567
:101970004801880C991CEA85FB85E80DF91D8081DA
:1019800091816EE977E00E94B415892B39F0CC0C77
:10199000DD1CEE1CFF1C6894C0F810C0EA85FB85B6
:1019A000E80DF91D808191816EEE72E00E94B41500
:1019B000892B29F1CC0CDD1CEE1CFF1CC501880F06
:1019C000991FEA85FB85E80FF91F808191816EE5FB
:1019D00071E00E94FC1522E0A20EB11C892B19F0C7
:1019E0000E5F1F4FBECF830101501109159507955A
:1019F000198708870031110524F41986188680E0BC
:101A000009C0CC82DD82EE82FF828CE090E0998377
:101A1000888381E0DF91CF911F910F91FF90EF902C
:101A2000DF90CF90BF90AF909F908F907F906F90FE
:101A300008958F929F92AF92BF92CF92DF92EF92D2
:101A4000FF92CF93DF93EC014A015B01790166E2DB
:101A500070E00E945C1668E273E2CE010E944416B8
:101A600064E971E1CE010E945016C7010197C12CB3
:101A7000D12C7601C39404C0CC0CDD1CEE1CFF1CE1
:101A80008A95D2F7C114D104E104F104F9F0D70129
:101A9000C60188219921AA21BB2160E372E0892B2C
:101AA0008A2B8B2B31F0CE010E9444166AE976E036
:101AB00005C0CE010E94441660E372E0CE010E9490
:101AC0005016F694E794D794C794DCCF60E372E0A5
:101AD000CE010E94441660E070E0CE01DF91CF910C
:101AE000FF90EF90DF90CF90BF90AF909F908F903E
:101AF0000C945016AF92BF92CF92DF92EF92FF926A
:101B00000F931F93CF93DF93EB01EA85FB858281CF
:101B1000938168E273E20E94B415892B11F480E08E
:101B20007DC080918903843019F5EA85FB85848125
:101B300095816AEC78E00E94FC15892BC9F0EA8552
:101B4000FB858681978160E372E00E94B415892B42
:101B500079F0198618868FEF9FEFDC018C839D83C7
:101B6000AE83BF8383E090E09983888381E056C091
:101B700080918903843498F2EA85FB85848195817C
:101B800064E971E10E94FC15892B49F206E010E03E
:101B9000C12CD12C7601EA85FB85E00FF11F8081F5
:101BA000918160E372E00E94B415892B09F4B7CFEC
:101BB000580182E0A80EB11CEA85FB85EA0DFB1DE9
:101BC000808191816AE976E00E94FC15892B39F0C9
:101BD000CC0CDD1CEE1CFF1C6894C0F811C0EA851B
:101BE000FB85EA0DFB1D8081918160E372E00E941C
:101BF000FC15892B09F493CFCC0CDD1CEE1CFF1CCB
:101C00000C5F1F4F0638110531F680E290E099878E
:101C10008887CC82DD82EE82FF82A4CFDF91CF91D4
:101C20001F910F91FF90EF90DF90CF90BF90AF90FA
:101C300008958F929F92AF92BF92CF92DF92EF92D0
:101C4000FF920F931F93CF93DF9300D000D0CDB7B7
:101C5000DEB74B01DB011A96ED91FC911B97828157
:101C600093816EEA7DE00E94B415892B11F480E027
:101C700093C0D4011A96ED91FC911B9784819581B4
:101C800066ED76E00E94B415892B89F3E6E0EE2E2E
:101C9000F12C20E030E040E050E0A12CB12CC12C30
:101CA000D12CD4011A96ED91FC911B97EE0DFF1DDE
:101CB0008081918166EF71E029833A834B835C8355
:101CC0000E94B415892B99F287010E5F1F4FD40132
:101CD0001A96ED91FC911B97E00FF11F8081918185
:101CE0006CED74E00E94FC1529813A814B815C8186
:101CF000892B39F0B501C60101E00E94B72D2160A2
:101D00001DC0D4011A96ED91FC911B97E00FF11FB5
:101D10008081918160E971E029833A834B835C8300
:101D20000E94FC1529813A814B815C81892B09F441
:101D30009ECFB501C60101E00E94B72D5B016C0189
:101D4000B4E0EB0EF11CE6ECEE16F10409F0A9CFBD
:101D5000D40114962C93149715963C9315971696C8
:101D60004C93169717965C931797B501C60100E23E
:101D70000E94D22D12962C93129713963C93139790
:101D800085E090E011969C938E9380E390E0199605
:101D90009C938E93189781E00F900F900F900F9067
:101DA000DF91CF911F910F91FF90EF90DF90CF9037
:101DB000BF90AF909F908F9008958F929F92AF9217
:101DC000BF92CF92DF92EF92FF920F931F93CF9328
:101DD000DF937A016901DA01CD91DC91FB01848501
:101DE0009585C817D9070CF04AC0CE01880F991FF6
:101DF0000284F385E02DE80FF91FA080B180C17047
:101E0000DD27F1E0CF27209719F484E690E002C0A7
:101E10008CE99FEF4801880E991EB401C5010E940C
:101E20006E15892B99F4800E911EB401C5010E9494
:101E30006E15892B71F4B401600F711FC5010E94EA
:101E40006E15892BF9F023E030E005C021E030E089
:101E500002C022E030E0D6018D919C91119701964D
:101E60008217930744F0F60111821082D7018D91F9
:101E70009C91119701968D939C93CE0105C081E0B2
:101E800090E002C08FEF9FEFDF91CF911F910F91F4
:101E9000FF90EF90DF90CF90BF90AF909F908F908A
:101EA00008954F925F926F927F928F929F92AF921E
:101EB000BF92CF92DF92EF92FF920F931F93CF9337
:101EC000DF9300D000D0CDB7DEB76C017B011C8260
:101ED0001B8281E090E09A838983809189038D3011
:101EE00010F480E070C009E713E09E012D5F3F4FC2
:101EF000AE014F5F5F4FC6010E94DD0E892B89F74F
:101F00009E012D5F3F4FAE014F5F5F4FB701C6018E
:101F10000E94DD0E019729F79E012D5F3F4FAE0114
:101F20004F5F5F4FB701C6010E94DD0E892BC9F6D6
:101F3000412C512C3201A12CB12C8091890390E0CD
:101F400029813A81281739079CF509E713E09E019A
:101F50002D5F3F4FAE014F5F5F4FB701C6010E943B
:101F6000DD0E4C019E012D5F3F4FAE014F5F5F4F75
:101F7000B701C6010E94DD0E21E08216910451F4E2
:101F8000892B09F0AECF440C551C661C771C689455
:101F900040F80AC0892809F0A4CF019709F0A1CF21
:101FA000440C551C661C771C8FEFA81AB80AC5CFC5
:101FB000F701B186A086448255826682778281E0ED
:101FC00090E0918380830F900F900F900F90DF919E
:101FD000CF911F910F91FF90EF90DF90CF90BF9026
:101FE000AF909F908F907F906F905F904F900895EB
:101FF0002F923F924F925F926F927F928F929F9219
:10200000AF92BF92CF92DF92EF92FF920F931F9306
:10201000CF93DF9300D000D0CDB7DEB76C017B014A
:102020001C821B82DB011C968D919C911D971816BA
:10203000190614F080E0BDC0DB011A96ED91FC9109
:102040001B9782E090E09A838983828193816AE67C
:102050007AE00E94B415892B69F3D7011A96ED91A5
:10206000FC911B9789819A819C012F5F3F4F3A8396
:102070002983880F991FE80FF91F8081918169E7F3
:1020800073E00E94FC15892BA9F20CEB11E09E0174
:102090002D5F3F4FAE014F5F5F4FB701C6010E94FA
:1020A000DD0E892B39F69E012D5F3F4FAE014F5F4C
:1020B0005F4FB701C6010E94DD0E019709F0BACF4C
:1020C000212C312C2101A12CB12C29813A81F7013D
:1020D00084859585281739070CF060C00CEB11E05A
:1020E0009E012D5F3F4FAE014F5F5F4FB701C601AD
:1020F0000E94DD0E3C01B3E0AB16B10491F00CEB95
:1021000011E09E012D5F3F4FAE014F5F5F4FB70162
:10211000C6010E94DD0E4C01E3E0AE16B10409F5E4
:1021200010C00CEB11E09E012D5F3F4FAE014F5FE1
:102130005F4FB701C6010E94DD0E68167906F9F2FD
:1021400079CF0CEB11E09E012D5F3F4FAE014F5F49
:102150005F4FB701C6010E94DD0E8816990609F08F
:1021600069CF6114710459F48A94892809F062CF07
:10217000220C331C441C551C689420F80BC06A9434
:10218000672809F057CF892809F054CF220C331C57
:10219000441C551CAFEFAA1ABA0A97CFB186A08685
:1021A000248235824682578282E090E09183808348
:1021B00081E00F900F900F900F90DF91CF911F91C2
:1021C0000F91FF90EF90DF90CF90BF90AF909F90D6
:1021D0008F907F906F905F904F903F902F900895D9
:1021E000AF92BF92CF92DF92EF92FF920F931F9325
:1021F000CF93DF93EB01EA85FB858281938168E8C9
:1022000073E10E94B415892B11F480E07DC08091A8
:102210008903843019F5EA85FB85848195816AEC10
:1022200078E00E94FC15892BC9F0EA85FB85868140
:10223000978160E372E00E94B415892B79F01986CA
:1022400018868FEF9FEFDC018C839D83AE83BF8365
:1022500087E090E09983888381E056C0809189036C
:10226000843498F2EA85FB858481958168E873E17E
:102270000E94FC15892B49F206E010E0C12CD12CFC
:102280007601EA85FB85E00FF11F8081918160E393
:1022900072E00E94B415892B09F4B7CF580182E08F
:1022A000A80EB11CEA85FB85EA0DFB1D808191819A
:1022B00060E476E00E94FC15892B39F0CC0CDD1C23
:1022C000EE1CFF1C6894C0F811C0EA85FB85EA0D7E
:1022D000FB1D8081918160E372E00E94FC15892BD7
:1022E00009F493CFCC0CDD1CEE1CFF1C0C5F1F4FC0
:1022F0000638110531F680E290E099878887CC8214
:10230000DD82EE82FF82A4CFDF91CF911F910F91EA
:10231000FF90EF90DF90CF90BF90AF9008958F9295
:102320009F92AF92BF92CF92DF92EF92FF920F9364
:102330001F93CF93DF93EB01809189038A3108F4D7
:102340007AC0EA85FB85808191818032934050F488
:10235000198618868FEF9FEFDC018C839D83AE83F7
:10236000BF836FC0828193816CEA7DE00E94B415C7
:10237000892B09F460C0EA85FB85848195816CEA2C
:102380007DE00E94B415892B09F455C054E0A52EB8
:10239000B12C03E010E0C12CD12C7601809189038F
:1023A00090E0A816B906E4F5EA85FB85C801880F18
:1023B000991FE80FF91F8081918166EB73E00E94FD
:1023C000FC15892B61F14501880C991CEA85FB8578
:1023D000E80DF91D8081918160E679E00E94B415D5
:1023E000892B39F0CC0CDD1CEE1CFF1C6894C0F866
:1023F00010C0EA85FB85E80DF91D808191816CEBA9
:1024000072E00E94B415892BB1F0CC0CDD1CEE1CDF
:10241000FF1C0E5F1F4F82E0A80EB11CBFCF8501CD
:102420000150110915950795198708870C3011057A
:1024300024F41986188680E009C0CC82DD82EE8201
:10244000FF828BE090E09983888381E0DF91CF91D8
:102450001F910F91FF90EF90DF90CF90BF90AF90C2
:102460009F908F9008958F929F92AF92BF92CF923C
:10247000DF92EF92FF920F931F93CF93DF93EB01C5
:10248000809189038A3108F471C0EA85FB858081D7
:102490009181843F914060F4198618868FEF9FEFF9
:1024A000DC018C839D83AE83BF838BE090E066C0AC
:1024B0008281938160E679E00E94B415892B09F44A
:1024C00055C073E0A72EB12C02E010E0C12CD12C36
:1024D00076018091890390E0A816B906E4F5EA85B3
:1024E000FB85C801880F991FE80FF91F8081918132
:1024F00068E572E00E94FC15892B61F14501880CAA
:10250000991CEA85FB85E80DF91D8081918160EBBE
:1025100074E00E94B415892B39F0CC0CDD1CEE1C44
:10252000FF1C6894C0F810C0EA85FB85E80DF91D12
:102530008081918168E572E00E94B415892BB1F029
:10254000CC0CDD1CEE1CFF1C0E5F1F4F82E0A80EA2
:10255000B11CBFCF85010150110915950795198749
:1025600008870C30110524F41986188680E009C00C
:10257000CC82DD82EE82FF8284E090E099838883C2
:1025800081E0DF91CF911F910F91FF90EF90DF904D
:10259000CF90BF90AF909F908F900895AF92BF92D1
:1025A000CF92DF92EF92FF920F931F93CF93DF931F
:1025B000EB0180918903863410F480E086C0EA85BF
:1025C000FB85828193816EEE72E00E94B415892BA7
:1025D000A1F3EA85FB85848195816EEE72E00E940D
:1025E000FC15892B51F3EA85FB858681978162E290
:1025F0007BE00E94B415892B01F3EA85FB85808579
:10260000918562E27BE00E94FC15892BB1F25CE0CF
:10261000A52EB12C05E010E0C12CD12C7601EA8565
:10262000FB85C801880F991FE80FF91F80819181F0
:102630006EEE72E00E94B415892B09F4BECFEA85D4
:10264000FB85EA0DFB1D8081918166E678E00E94A2
:10265000FC15892B39F0CC0CDD1CEE1CFF1C68949A
:10266000C0F811C0EA85FB85EA0DFB1D80819181D0
:102670006EEE72E00E94FC15892B09F49ECFCC0C03
:10268000DD1CEE1CFF1C0E5F1F4F84E0A80EB11C6A
:102690000534110521F6EA85FB85E657FF4F808159
:1026A00091816EEE72E00E94B415892B09F485CFFA
:1026B00080E290E099878887CC82DD82EE82FF827B
:1026C00088E090E09983888381E0DF91CF911F912A
:1026D0000F91FF90EF90DF90CF90BF90AF90089553
:1026E0001F920F920FB60F9211242F933F934F9387
:1026F0005F936F937F938F939F93AF93BF93EF936A
:10270000FF93809187030E94CC2320918A0330910C
:102710008B032F5F3F4F30938B0320938A0390915D
:102720008903953618F096E090938603909186037E
:102730009430C9F128F4923069F09330D1F05EC042
:10274000953009F451C0963009F058C091E090934B
:10275000560451C0811152C020918A0330918B03DD
:102760002436310508F442C01092560410928903B1
:102770001CC0813009F042C0E091890391E09E0FB6
:1027800090938903F0E020918A0330918B03EE0F40
:10279000FF1FE457FC4F3183208310928B0310926C
:1027A0008A0394E029C0811117C0E091890391E068
:1027B0009E0F90938903F0E020918A0330918B0360
:1027C000EE0FFF1FE457FC4F3183208310928B03E1
:1027D00010928A0393E010C020918A0330918B03FA
:1027E0002536310558F007C0811108C010928B03BF
:1027F00010928A0303C095E090938603909188031A
:10280000992329F0811102C02D9A01C02D98FF91C2
:10281000EF91BF91AF919F918F917F916F915F9158
:102820004F913F912F910F900FBE0F901F901895D1
:1028300060938703109288030895F89410928000A3
:1028400089E08093810080E293E0909389008093F7
:102850008800109285001092840082E080936F00BF
:10286000789480938603109289038091870360E0B7
:102870000C945D2382E0809386031092890308956F
:102880008F929F92AF92BF92CF92DF92EF92FF9280
:102890007B01BA0180E090E00E941E2C4B015C019C
:1028A000B70180E090E00E941E2C6B017C012DECB2
:1028B0003CEC4CE45FE30E94D02C9B01AC01C501D1
:1028C000B4010E94812B87FD17C02DEC3CEC4CE439
:1028D0005FE3C501B4010E94D02C9B01AC01C7018C
:1028E000B6010E94812B992787FD90958827990F23
:1028F000881F9927019602C080E090E0FF90EF903A
:10290000DF90CF90BF90AF909F908F9008958F925F
:102910009F92AF92BF92CF92DF92EF92FF920F936E
:102920001F93CF93DF936C01EB01EC84FD8486E071
:10293000E816F1040CF444C0EE0CFF1C06E010E0B5
:1029400045EC842E4DE9942E4CE1A42E41E8B42EA2
:102950008A859B85FC01E00FF11F40815181F801C0
:102960003497E80FF91F60817181C6010E944014FD
:10297000FC01A501940163E971E080E091E00E940F
:10298000332D4F01AA2497FCA094BA2C86269726B3
:10299000A826B9260E5F1F4F0E151F05C9F68C829B
:1029A0009D82AE82BF8280E290E0998788878FEF18
:1029B0009FEF9983888361E070E080E090E003C03E
:1029C00060E070E0CB01DF91CF911F910F91FF90FC
:1029D000EF90DF90CF90BF90AF909F908F90089531
:1029E0000F931F93CF93DF938C01EB018CE893E05F
:1029F0009B878A878091890390E09D878C8780914F
:102A0000560490E09F878E8780918603853009F079
:102A10005EC0C8010E947A0D882319F081E090E021
:102A200058C0BE01C8010E9433128111F7CFBE0108
:102A3000C8010E948F118111F1CFBE01C8010E940F
:102A40008A0C8111EBCFBE01C8010E94510F811188
:102A5000E5CFBE01C8010E94F80F8111DFCFBE0192
:102A6000C8010E94190E8111D9CFBE01C8010E9470
:102A7000FD0B8111D3CFBE01C8010E94440B81110F
:102A8000CDCFBE01C8010E94F0108111C7CFBE0199
:102A9000C8010E94CE128111C1CFBE01C8010E949F
:102AA000380A8111BBCFBE01C8010E94C90A811139
:102AB000B5CFBE01C8010E948714672B682B692B14
:102AC00009F0ACCF82E0809386031092890380E006
:102AD00090E0DF91CF911F910F910895CF92DF92F7
:102AE000EF92FF92CF93DF93EC01882777FD8095DB
:102AF000982F0E94202C6B017C0120E030E040E404
:102B00005FE30E94D02C20E030E048E452E40E94D1
:102B1000852B0E94ED2BC617D707ECF020E030E0A4
:102B200040EA5FE3C701B6010E94D02C20E030E00C
:102B300048E452E40E94852B20E030E040E85FE367
:102B40000E941D2B0E94ED2B21E06C177D070CF4D9
:102B500020E0822F01C080E090E0DF91CF91FF90D4
:102B6000EF90DF90CF900895CF92DF92EF92FF9297
:102B7000CF93DF93EC016C597F4F882777FD8095C9
:102B8000982F0E94202C6B017C0120E030E040E473
:102B90005FE30E94D02C20E030E048E452E40E9441
:102BA000852B0E94ED2BC617D707ECF020E030E014
:102BB00040EA5FE3C701B6010E94D02C20E030E07C
:102BC00048E452E40E94852B20E030E040E85FE3D7
:102BD0000E941D2B0E94ED2B21E06C177D070CF449
:102BE00020E0822F01C080E090E0DF91CF91FF9044
:102BF000EF90DF90CF900895CF92DF92EF92FF9207
:102C0000CF93DF93EC0164567109882777FD809597
:102C1000982F0E94202C6B017C0120E030E040E4E2
:102C20005FE30E94D02C20E030E048E452E40E94B0
:102C3000852B0E94ED2BC617D707ECF020E030E083
:102C400040EA5FE3C701B6010E94D02C20E030E0EB
:102C500048E452E40E94852B20E030E040E85FE346
:102C60000E941D2B0E94ED2B21E06C177D070CF4B8
:102C700020E0822F01C080E090E0DF91CF91FF90B3
:102C8000EF90DF90CF900895CB01209180002068D5
:102C9000209380001816190614F40C9472220895DB
:102CA000CB01209180002F77209380001816190601
:102CB00014F40C9472220895CF93DF93EB011092D9
:102CC0006F0061E089E00E945D2360E089E00E947E
:102CD00096239E01442737FD4095542F60E47FE101
:102CE00080E090E00E948D2D82E08093800081E161
:102CF000809381003093870020938600C90163E0B0
:102D000070E00E94432D7093890060938800DF91EA
:102D1000CF9108958091870490E020918804821BD0
:102D2000910908952091880480918704281750F410
:102D3000E22FF0E0E757FB4F808190E02F5F209378
:102D4000880408958FEF9FEF0895E09188048091A3
:102D50008704E81730F4F0E0E757FB4F808190E0FC
:102D600008958FEF9FEF08950895CF92DF92EF922D
:102D7000FF920F931F93CF93DF937C01CB018A01C6
:102D800020916304222389F0EB016B01C40ED51E50
:102D9000CC15DD0569F06991D701ED91FC910190A9
:102DA000F081E02DC7010995F3CF642F0E9416181A
:102DB000C801DF91CF911F910F91FF90EF90DF90AD
:102DC000CF900895CF93DF931F92CDB7DEB769837D
:102DD000209163042223D1F020916404203240F03A
:102DE00021E030E0FC013383228380E090E015C0D5
:102DF00080916504E82FF0E0EA59FB4F99819083B8
:102E00008F5F809365048093640405C061E0CE0108
:102E100001960E94161881E090E00F90DF91CF910B
:102E20000895FC011382128248EE53E060E070E0E6
:102E3000448355836683778385E892E0918380831A
:102E400008951092880410928704109265041092DD
:102E500064040C946117862F413208F040E269E85F
:102E600074E00E947F17109288048093870408956D
:102E700021E00C942B1781E0809363046093860417
:102E8000109265041092640408950C943B170F93FC
:102E9000062F21E04091640466E674E08091860488
:102EA0000E94C31710926504109264041092630488
:102EB0000F91089561E00C94471787E594E00C9416
:102EC00011171092160581E08093140510921305D6
:102ED00061E082E10E94962361E083E10E949623F3
:102EE000E9EBF0E080818E7F808380818D7F80831D
:102EF00088E48093B80085E48093BC000895413253
:102F000008F03FC0909116059111FCCF91E090938D
:102F10001605209314052FEF2093A9041092EE04B8
:102F2000240F2093ED049093150590911505880FBB
:102F3000892B8093150580911305813041F41092FF
:102F40001305809115058093BB0085EC01C085EECB
:102F50008093BC00809116058130E1F38091EE04EE
:102F6000841710F44091EE042FEE34E0FB01D901F8
:102F70008A2F821B841718F48D918193F9CF842FA7
:102F8000089580E008950F93413208F046C0909173
:102F900016059111FCCF92E090931605009314054D
:102FA0009FEF9093A9041092EE044093ED04FB016F
:102FB0006FEE74E0DB019A2F961B941718F4919131
:102FC0009D93F9CF1092150590911505880F892BC7
:102FD0008093150580911305813041F410921305FB
:102FE000809115058093BB0085EC01C085EE809330
:102FF000BC00222321F0809116058230E1F38091FC
:10300000A9048F3F61F08091A904803251F0809132
:10301000A904803341F483E007C081E005C080E06B
:1030200003C082E001C084E00F910895613298F4FA
:1030300020911605243089F46093CB04FC018DECBB
:1030400094E0DC012A2F281B261718F421912D93D8
:10305000F9CF80E0089581E0089582E0089585ED3C
:103060008093BC008091BC0084FDFCCF10921605BB
:10307000089585EC8093BC001092160508951F9268
:103080000F920FB60F9211242F933F934F935F939C
:103090006F937F938F939F93AF93BF93EF93FF9320
:1030A0008091B900887F803609F49CC068F5883229
:1030B00009F45BC090F4803109F454C038F48823DB
:1030C00009F4F5C0883009F44DC0F5C0883109F421
:1030D0004CC0803209F45DC0EEC0803409F468C091
:1030E00048F4803309F455C0883309F0E4C0809374
:1030F000A904A8C0803509F44FC0883509F45DC023
:10310000883409F0D8C0D5C0883909F4C6C0A8F4FD
:10311000883709F467C038F4883609F463C080370B
:1031200009F460C0C8C0883809F4B7C0803909F410
:103130005FC0803809F0BFC05BC0803B09F485C028
:1031400038F4803A09F466C0883A09F47EC0B3C006
:10315000803C09F4A6C0883C09F4A3C0883B09F46C
:1031600089C0A9C08091150510C09091EE0480918E
:10317000ED04981770F5E091EE0481E08E0F8093D6
:10318000EE04F0E0E151FB4F80818093BB0085ECC1
:1031900085C08093A9048DC0E091EE0481E08E0F7C
:1031A0008093EE048091BB00F0E0E151FB4F8083FF
:1031B0009091EE048091ED046DC0E091EE0481E009
:1031C0008E0F8093EE048091BB00F0E0E151FB4F45
:1031D00080838091140581116CC081E08093130578
:1031E00084EA60C083E0809316051092AA04CFCFD2
:1031F0008091AA04803208F050C0E091AA0481E0D6
:103200008E0F8093AA048091BB00F0E0E555FB4F40
:103210008083BDCF8091AA04803230F4E091AA046B
:10322000F0E0E555FB4F10820E942F186091AA0430
:1032300070E0E0910F05F09110058BEA94E009959C
:103240001092AA040E94391836C084E080931605B3
:103250001092CC041092CB04E0911105F09112056C
:1032600009958091CB04811105C081E08093CB0446
:103270001092CD04E091CC0481E08E0F8093CC04B9
:10328000F0E0E353FB4F80818093BB009091CC042E
:103290008091CB04981708F47ACF85E88093BC001E
:1032A0000AC085EC8093BC001092160504C01092F1
:1032B000A9040E942F18FF91EF91BF91AF919F91A8
:1032C0008F917F916F915F914F913F912F910F90CF
:1032D0000FBE0F901F9018950F931F93CF93DF93FE
:1032E000EC018B0188819981DC01ED91FC916F7774
:1032F0000190F081E02D099588819981DC01ED91A3
:10330000FC91B801660F672F661F770B6F770190EE
:10331000F081E02DDF91CF911F910F910994DC0195
:103320008D919C91DC01ED91FC910190F081E02D5B
:1033300060EF0994DC018D919C91DC01ED91FC9191
:103340000190F081E02D67EF0994CF92DF92EF9228
:10335000FF920F931F93CF93DF938C016A017B0140
:103360008FE190E00E945A26EC0120E04CE06DE0F5
:103370000E94C11FF801D183C083B701A601CE010D
:10338000DF91CF911F910F91FF90EF90DF90CF9041
:103390000C94F11FCF92DF92EF92FF920F931F9345
:1033A000CF93DF938C01EB01C42ED22E61E972E042
:1033B000CE010E9445307C016FE270E0CE010E9498
:1033C0003A30009739F46CE570E0CE010E943A3053
:1033D000009711F0EC012196E114F10451F4FE0183
:1033E00001900020E9F7EC1BEF5FD8011296EC93F7
:1033F00006C0EC1AFD0AE394E394F801E282D801D6
:1034000013968D919C9114970E949B2EF801E28057
:10341000F12CC70101960E94032ED80114969C93AB
:103420008E931397FC01EE0DFF1D1082FC01C082EC
:10343000D18212964C9150E042505109BE01029641
:10344000DF91CF911F910F91FF90EF90DF90CF9080
:103450000C942B30DC018D919C91DC01ED91FC9161
:103460000480F581E02D0994EF92FF921F93CF9392
:10347000DF93FC012085213709F047C0E956FF4F53
:103480000190F081E02D309709F456C0DC01A75778
:10349000BF4F4D915C919A012150310937FD9A013E
:1034A000A90155954795142F20E030E061E0DC013B
:1034B0002117D8F4A60FB11D18967C91DC01A20F3C
:1034C000B31F18967C931897C1E0C60F7C01EC0ED1
:1034D000F11CE701C885D0E8CD9F7019112418961A
:1034E0007C936E5F2F5F3F4FE2CFA40FB11D179605
:1034F0002C911797222311F018961C920896DF91B1
:10350000CF911F91FF90EF900994FC01E756FF4F78
:103510000190F081E02D309779F0AC01475F5F4F6B
:10352000DC01A757BF4F6C916150822FDF91CF9183
:103530001F91FF90EF900994DF91CF911F91FF9021
:10354000EF9008950F931F93CF93DF93EC018A01BF
:1035500088819981DC01ED91FC916F70606E019022
:10356000F081E02D0995B801CE01DF91CF911F9137
:103570000F910C946C190F931F93CF93DF93EC0171
:103580008A0188819981DC01ED91FC916F706069FD
:103590000190F081E02D099588819981DC01ED9100
:1035A000FC91602F6F770190F081E02D0995888163
:1035B0009981DC01ED91FC91B801660F672F661FC0
:1035C000770B0190F081E02DDF91CF911F910F914A
:1035D0000994CF92DF92EF92FF920F931F93CF93B4
:1035E000DF9300D01F92CDB7DEB78C01F42E2A8373
:1035F0003B8369830E948F19D8018D919C91DC01D6
:10360000ED91FC910190F081E02D698109952A816D
:10361000E22EC22E3B81D32E8C2D8E198F1540F4B5
:10362000F60161916F0170E0C8010E946C19F4CF3E
:10363000C8010F900F900F90DF91CF911F910F91C4
:10364000FF90EF90DF90CF900C949A199A01FA01B5
:1036500001900020E9F73197E41BF50B4E2F0C94F5
:10366000E91AAB0161E70C94261BDC018D919C915A
:10367000DC01ED91FC910190F081E02D0994603D19
:10368000B9F028F4603961F0603C71F00895603E53
:1036900019F0643F89F00895FC01E557FF4F0FC012
:1036A000FC01E357FF4F0BC0FC01E157FF4F07C080
:1036B000FC01EF56FF4F03C0FC01ED56FF4F518355
:1036C000408308956F3F29F4FC01EB56FF4F51836F
:1036D0004083089587569F4FFC015183408308958E
:1036E000FC0115821682178280E090E00196DF01CE
:1036F0008138910529F0A80FB91F17961C92F6CFB3
:10370000A857BF4F1C9211961D921C92EB56FF4F6B
:103710000190F081E02D309709F009940895FC01A3
:103720001282148213820C94701BCF93DF93EC01EE
:1037300088819981DC01ED91FC910680F781E02D73
:103740000995FE01E857FF4F20812223B1F0873F02
:10375000910531F41082CE01DF91CF910C94341A8F
:10376000FE01E757FF4F20813181C20FD31F8887A9
:103770002F5F3F4F3183208393C02D81222309F493
:103780005EC0803891050CF05AC09FEF920F9D8368
:10379000FE01E90FF11D8087911182C08E8188237F
:1037A00009F47EC0803DE9F148F48039E9F0803CBD
:1037B00009F043C0FE01E157FF4F36C0803E19F0CB
:1037C000843F19F13AC0FE01E557FF4F0190F081A7
:1037D000E02D309791F18885698570E0B0E88B9F86
:1037E000600D711D112427C0FE01E357FF4F0190AA
:1037F000F081E02D309709F18885698570E090E8C7
:10380000899F600D711D112416C0FE01ED56FF4FFA
:103810000190F081E02D309781F0688570E0898516
:103820000BC0FE01EF56FF4F0190F081E02D309765
:1038300021F0688570E08F8109951E8231C0803F3C
:1038400091052CF4282F2F702F83807F9927803E9D
:103850009105D9F054F4803C9105C9F0803D910563
:10386000B1F080399105E1F410C0843F910569F011
:103870008F3F910581F0803F910591F481E0808335
:10388000C757DF4F198218820BC092E001C091E048
:103890009D838E8305C0CE01DF91CF910C94701B68
:1038A000DF91CF91089587E195E00C948F1B5F9293
:1038B0006F927F928F929F92AF92BF92CF92DF9240
:1038C000EF92FF920F931F93CF93DF93EC01762E2D
:1038D000188619861A861B861C8661E0872D0E9431
:1038E0005D2360E0872D0E94962364E170E080E014
:1038F00090E00E944A2261E0872D0E94962388E290
:1039000090E00E94722260E0872D0E945D2301E119
:1039100017E2872D0E94CC23892B31F40150110925
:10392000C1F78EEF9FEF57C001E117E2872D0E948C
:10393000CC23019721F401501109C1F7F2CF08E21D
:1039400010E0512C37E0632EAA24A394B12C21E17E
:10395000E22E27E2F22E872D0E94CC23892B29F418
:1039600081E0E81AF108B9F7DCCF0E9427226B0149
:103970007C0191E1892E97E2992E872D0E94CC231C
:10398000019729F481E0881A9108B9F7CACF0E94FB
:1039900027226C197D098E099F09693271058105FD
:1039A000910560F0FE01E50DF11D2085C501062C95
:1039B00001C0880F0A94EAF7282B2087611004C001
:1039C000539487E0682E01C06A940150110909F0F0
:1039D000BECF80E090E0DF91CF911F910F91FF90DB
:1039E000EF90DF90CF90BF90AF909F908F907F909F
:1039F0006F905F9008950F931F93CF93DF93EC0127
:103A00000E94571C009709F51885612F70E080E02F
:103A100090E00E941E2C688379838A839B830A85A9
:103A2000602F70E080E090E00E941E2C6C837D830C
:103A30008E839F83100F81E090E02C85211302C0BC
:103A400080E090E0919581959109DF91CF911F9150
:103A50000F9108950895EF92FF920F931F93CF93C4
:103A6000DF93EC01F62EE42E60E089810E9496231C
:103A700000E010E08B8190E0081719077CF42F2DEF
:103A800041E06A8188810E9421242E2D41E06A81D3
:103A900088810E9421240F5F1F4FECCF60E0898155
:103AA0000E94962361E08981DF91CF911F910F9150
:103AB000FF90EF900C949623462F6AE00C942B1DF8
:103AC0000F93CF93DF93EC01862F688349832A837A
:103AD0000B8361E00E945D2361E08A810E945D2387
:103AE00061E089810E945D2361E08A810E949623C2
:103AF00047E06BE0CE010E942B1D40E069E0CE0163
:103B00000E942B1D41E06CE0CE010E942B1D40E085
:103B10006FE0CE010E942B1D61E0CE01DF91CF91BD
:103B20000F910C945C1DCF92DF92EF92FF920F9356
:103B30001F93CF93DF93EC01C42EE62EE694E69418
:103B4000E694F12C6770D62E60E089810E9496235E
:103B500000E010E0D3948B8190E008171907D4F4AB
:103B60000E151F0541F42D2D41E06A8188810E94C8
:103B700021242C2D07C020E041E06A8188810E9429
:103B8000212420E041E06A8188810E9421240F5F86
:103B90001F4FE1CF60E089810E94962361E0898117
:103BA000DF91CF911F910F91FF90EF90DF90CF9019
:103BB0000C949623FF920F931F93CF93DF938C0166
:103BC000EB01F12C49916F2DC8010E94931DF394D4
:103BD00088E0F812F7CFDF91CF911F910F91FF90FE
:103BE00008951F93CF93DF93EC0110E040E0612F25
:103BF000CE010E94931D1F5F1830C1F7DF91CF9156
:103C00001F91089520913406309135062817390701
:103C1000B9F49091B2058091B305981789F0E091BD
:103C2000B205F0E0EC54FA4F80812091B20530E00B
:103C30002F5F3F4F2F7733272093B20590E00895F1
:103C40008FEF9FEF08951F93CF93DF93DC015C9676
:103C50008D919C915D97009749F481E090E01396D7
:103C60009C938E93129780E090E03BC05196ED912B
:103C7000FC91529750962C915097322F30951FB748
:103C80005E964C915E9741FB772770F941FD6095F8
:103C9000F8944081772311F0422B01C043234083E5
:103CA000EC012197F1F748E0508160FF02C0522BF0
:103CB00001C053235083EC012197F1F766954150E1
:103CC00099F78081772311F0832301C0822B8083B1
:103CD0001FBF5C968D919C915D970197F1F781E0F4
:103CE00090E0DF91CF911F9108952091340630919B
:103CF00035062817390781F49091B2058091B305F4
:103D0000981751F0E091B205F0E0EC54FA4F808141
:103D1000992787FD909508958FEF9FEF0895209143
:103D20003406309135062817390771F48091B305B0
:103D30002091B20590E080589F4F821B910960E866
:103D400070E00E94572D089580E090E00895209142
:103D50003406309135062817390739F48FB7F894AF
:103D60001092B3051092B2058FBF0895E09134060A
:103D7000F0913506E817F90769F4A389B4899C9195
:103D80008589809589238C9310923506109234068C
:103D900081E0089580E00895CF93DF93EC018A8D50
:103DA0009B8D892BF1F080913406909135068C170C
:103DB0009D07B9F0009711F00E94B61E8E8D8E7F80
:103DC0008E8F1092B3051092B205D0933506C09332
:103DD0003406EB89FC8980819D89892B808381E071
:103DE00001C080E0DF91CF9108951F920F920FB62E
:103DF0000F9211242F933F934F935F936F937F9371
:103E00008F939F93AF93BF93EF93FF93E09134060B
:103E1000F0913506309709F451C0868DA685B78597
:103E2000958581FF04C08C91892329F447C08C912A
:103E3000892309F043C0A389B4899C918589809521
:103E400089238C93868997890197F1F7208D318D8D
:103E5000A685B785758558E040E0C9010197F1F75F
:103E6000842F90E095958795482F6C91672309F0F2
:103E70004068515091F7868D81FD40958091B30542
:103E800090E001968F7799272091B205281749F085
:103E9000A091B305B0E0AC54BA4F4C938093B305F6
:103EA00003C0868D8160868F828D938D0197F1F797
:103EB000A389B4898C919589892B8C93FF91EF917B
:103EC000BF91AF919F918F917F916F915F914F9132
:103ED0003F912F910F900FBE0F901F9018951F9339
:103EE000CF93DF93EC01162F6E8D6695617081E0A4
:103EF0006827812F0E94962361E0812F0E945D2315
:103F0000812F90E0FC01E458FF4FE491E88BFC0125
:103F1000E057FF4FE491F0E0EE0FFF1FE255FF4F37
:103F2000859194919A8B898BDF91CF911F91089500
:103F30001F93CF93DF93EC01162F60E0812F0E9437
:103F40005D238E8D81FD04C061E0812F0E94962348
:103F50001C87812F90E0FC01E458FF4FE491ED872E
:103F6000FC01E057FF4FE491F0E0EE0FFF1FEC552E
:103F7000FF4F859194919F878E87DF91CF911F91FD
:103F80000895FF920F931F93CF93DF93EC01F62ECA
:103F9000522F1B821A8208EE13E020E030E00C83DF
:103FA0001D832E833F838AE992E0998388831F8A49
:103FB0001E8A198E188E1B8E1A8E1D8E1C8E8E8D4B
:103FC0008E7F50FB81F98E8F642FCE010E946F1F70
:103FD0006F2DCE01DF91CF911F910F91FF900C9427
:103FE000981FCF93DF93EC019A01AB011B8E1A8EC1
:103FF000198E188E1F8A1E8A60E079E08DE390E0AA
:104000000E948D2DC9012430310520F0B901635083
:10401000710902C061E070E07D8F6C8FEC85E63144
:1040200008F068C0B901769567956431710518F09C
:104030006351710902C061E070E07F8B6E8B06975F
:1040400018F0C901059702C081E090E0998F888F30
:10405000C901880F991F820F931F96958795969592
:1040600087958D30910510F00C9702C081E090E0AB
:104070009B8F8A8F20916800E83050F091E0EE30FD
:1040800008F490E081E001C0880F9A95EAF701C03A
:1040900084E0822B809368002C85283038F02E3005
:1040A00040F0263148F48CE690E008C08DE690E0C0
:1040B00005C08BE690E002C080E090E09C8B8B8B8B
:1040C000283030F481E001C0880F2A95EAF70DC04E
:1040D000822F90E02E3010F4089701C00E9791E0E7
:1040E00001C0990F8A95EAF7892F8D8B8C8D9D8D54
:1040F0000197F1F7CE01DF91CF910C94CC1EDC013A
:10410000ED91FC910190F081E02D0994089581E0FA
:1041100080933806089510923806089560930D0133
:10412000089586E396E00C94CC20809137068111A7
:1041300007C087E594E00E94211781E0809337064D
:1041400063E570E087E594E00E94451761E370E065
:1041500087E594E00E947F206091390687E594E02E
:104160000E94E21687E594E00E945A1763E570E02A
:1041700087E594E00E9445176DE270E087E594E0E2
:104180000E947F2068E070E087E594E00E947F2035
:1041900087E594E00C945A17FC0110820895FC0105
:1041A00060830895FC018081813019F0823029F00C
:1041B000089587E195E00C94311B83E496E00C941C
:1041C0009A26CF93DF93EB01FC018081813019F0B7
:1041D000823029F00BC087E195E00E94311BBE01BF
:1041E00083E496E0DF91CF910C94A026DF91CF91EC
:1041F0000895CF92DF92EF92FF920F931F93CF9388
:10420000DF93CDB7DEB76C01CB01EDB6FEB6FB0197
:10421000448155814F5F5F4F2DB73EB7241B350B4F
:104220000FB6F8943EBF0FBE2DBF0DB71EB70F5F80
:104230001F4F20E030E0B8010E94E62AB801C60115
:104240000E94D2200FB6F894FEBE0FBEEDBEDF91E5
:10425000CF911F910F91FF90EF90DF90CF90089535
:104260000F931F93CF93DF9300D000D000D0CDB732
:10427000DEB78C01CE0101960E94672ABE016F5FF6
:104280007F4FC8010E94F920CE0101960E94522959
:1042900026960FB6F894DEBF0FBECDBFDF91CF914B
:1042A0001F910F910895CF92DF92EF92FF920F939B
:1042B0001F93CF93DF93CDB7DEB76C01CB01EDB683
:1042C000FEB6FB01448155814F5F5F4F2DB73EB76E
:1042D000241B350B0FB6F8943EBF0FBE2DBF0DB794
:1042E0001EB70F5F1F4F20E030E0B8010E94E62AA2
:1042F000B801C6010E94E1200FB6F894FEBE0FBEC1
:10430000EDBEDF91CF911F910F91FF90EF90DF9065
:10431000CF9008950F931F93CF93DF9300D000D0D9
:1043200000D0CDB7DEB78C014AE0CE0101960E94E5
:104330000E2ABE016F5F7F4FC8010E945321CE013C
:1043400001960E94522926960FB6F894DEBF0FBE42
:10435000CDBFDF91CF911F910F9108950F931F93C0
:10436000CF93DF9300D000D000D0CDB7DEB78C0163
:10437000CE0101960E94672ABE016F5F7F4FC80180
:104380000E945321CE0101960E94522926960FB613
:10439000F894DEBF0FBECDBFDF91CF911F910F917B
:1043A00008951F920F920FB60F9211242F933F93EF
:1043B0008F939F93AF93BF9380913B0690913C0660
:1043C000A0913D06B0913E0630913A0623E0230FBE
:1043D0002D3720F40196A11DB11D05C026E8230F3D
:1043E0000296A11DB11D20933A0680933B0690933F
:1043F0003C06A0933D06B0933E0680913F06909107
:104400004006A0914106B09142060196A11DB11D42
:1044100080933F0690934006A0934106B0934206D6
:10442000BF91AF919F918F913F912F910F900FBEB0
:104430000F901F9018952FB7F89460913B067091DC
:104440003C0680913D0690913E062FBF08953FB7F0
:10445000F89480913F0690914006A0914106B0915A
:10446000420626B5A89B05C02F3F19F00196A11D55
:10447000B11D3FBF6627782F892F9A2F620F711DBC
:10448000811D911D42E0660F771F881F991F4A9575
:10449000D1F70895CF92DF92EF92FF92CF93DF93FF
:1044A0006B017C010E942722EB01C114D104E104BD
:1044B000F10489F00E941B2B0E9427226C1B7D0BAC
:1044C000683E734090F381E0C81AD108E108F10812
:1044D000C851DC4FEACFDF91CF91FF90EF90DF9092
:1044E000CF9008958230910538F0880F991F880F7A
:1044F000991F05970197F1F70895789484B5826024
:1045000084BD84B5816084BD85B5826085BD85B577
:10451000816085BDEEE6F0E0808181608083E1E826
:10452000F0E010828081826080838081816080835E
:10453000E0E8F0E0808181608083E1EBF0E0808161
:1045400084608083E0EBF0E0808181608083EAE733
:10455000F0E08081846080838081826080838081BC
:10456000816080838081806880831092C10008957B
:104570008E3008F08E50877020910E0190E4299FB4
:1045800090011124822B80937C0080917A008064BA
:1045900080937A0080917A0086FDFCCF809178002C
:1045A0002091790090E0922B08951F93CF93DF9391
:1045B000182FEB0161E00E945D23209711F460E069
:1045C00004C0CF3FD10539F461E0812FDF91CF9155
:1045D0001F910C949623E12FF0E0E859FF4FE491EE
:1045E000E330F9F048F4E130B9F0E230A1F584B5F8
:1045F000806284BDC8BD34C0E730E9F0E83019F10D
:10460000E43049F580918000806280938000D093EF
:104610008B00C0938A0024C084B5806884BDC7BD68
:104620001FC080918000806880938000D0938900B3
:10463000C093880015C08091B00080688093B0005E
:10464000C093B3000DC08091B00080628093B00031
:10465000C093B40005C0C038D1050CF0B5CFAFCFC2
:10466000DF91CF911F910895833081F028F481303C
:1046700099F08230A1F008958730A9F08830B9F020
:104680008430D1F4809180008F7D03C080918000C0
:104690008F7780938000089584B58F7702C084B5AA
:1046A0008F7D84BD08958091B0008F7703C0809185
:1046B000B0008F7D8093B0000895CF93DF9390E09A
:1046C000FC01E458FF4F2491FC01E057FF4F849117
:1046D000882349F190E0880F991FFC01E854FF4FAF
:1046E000A591B49182559F4FFC01C591D4919FB77C
:1046F000611108C0F8948C91209582238C93888155
:1047000082230AC0623051F4F8948C91322F309594
:1047100083238C938881822B888304C0F8948C91A6
:10472000822B8C939FBFDF91CF9108950F931F939E
:10473000CF93DF931F92CDB7DEB7282F30E0F9017A
:10474000E859FF4F8491F901E458FF4F1491F901A2
:10475000E057FF4F04910023C9F0882321F06983BB
:104760000E9434236981E02FF0E0EE0FFF1FE25535
:10477000FF4FA591B4919FB7F8948C91611103C03C
:104780001095812301C0812B8C939FBF0F90DF91E7
:10479000CF911F910F910895CF93DF93282F30E091
:1047A000F901E859FF4F8491F901E458FF4FD49182
:1047B000F901E057FF4FC491CC2391F081110E9481
:1047C0003423EC2FF0E0EE0FFF1FEC55FF4FA591C7
:1047D000B4912C912D2381E090E021F480E002C07F
:1047E00080E090E0DF91CF9108950F931F93762F93
:1047F00090E0FC01E458FF4F6491FC01E057FF4F4B
:10480000E4917111762FF0E0EE0FFF1FEC55FF4F92
:104810008591949189019A013F70472F0E949100E0
:10482000611571058105910531F06F5F7F4F8F4FE5
:104830009F4F9F7003C060E070E0CB011F910F910C
:104840000895BF92CF92DF92EF92FF920F931F9342
:10485000CF93DF93C82ED62EB42EC7E0D0E0022F20
:1048600010E087E0E82EF12CB1100AC0F701EC1B34
:10487000FD0BB80102C075956795EA95E2F707C090
:10488000B8010C2E02C0759567950A94E2F7617025
:1048900077278C2D0E94962361E08D2D0E94962310
:1048A00060E08D2D0E9496232197F0F6DF91CF9145
:1048B0001F910F91FF90EF90DF90CF90BF900895E0
:1048C000FC01818D228D90E0805C9F4F821B9109BD
:1048D0008F7399270895FC01918D828D981731F07F
:1048E000828DE80FF11D858D90E008958FEF9FEF89
:1048F0000895FC01918D828D981761F0828DDF0102
:10490000A80FB11D5D968C91928D9F5F9F73928FC2
:1049100090E008958FEF9FEF08958DEF95E2892B3A
:1049200049F080E090E0892B29F00E94FD2581115B
:104930000C9400000895FC01848DDF01A80FB11DC7
:10494000A35ABF4F2C91848D90E001968F739927C5
:10495000848FA689B7892C93A089B1898C918064B2
:104960008C93938D848D981306C00288F389E02D73
:1049700080818F7D80830895CF93DF93EC01888DB4
:104980008823C9F0EA89FB89808185FD05C0A88953
:10499000B9898C9186FD0FC00FB607FCF5CF8081D9
:1049A00085FFF2CFA889B9898C9185FFEDCFCE0123
:1049B0000E949B24E7CFDF91CF910895CF92DF92A1
:1049C000FF920F931F93CF93DF931F92CDB7DEB764
:1049D0006C0181E0D60158968C9358975B969C9118
:1049E0005B975C968C915C97981307C05096ED91FD
:1049F000FC915197808185FD2EC0F601038D10E05A
:104A00000F5F1F4F0F731127F02EF601848DF812E0
:104A100011C00FB607FCF9CFD6015096ED91FC916D
:104A20005197808185FFF1CFC60169830E949B2445
:104A30006981EBCF838DE80FF11DE35AFF4F60834F
:104A4000D6015B960C935B975296ED91FC91539730
:104A5000808180620CC0D6015696ED91FC915797EB
:104A600060835096ED91FC915197808180648083A2
:104A700081E090E00F90DF91CF911F910F91FF9017
:104A8000DF90CF900895BF92CF92DF92EF92FF9286
:104A9000CF93DF93EC016A017B01B22EE889F9899B
:104AA00082E08083411581EE580761057105A1F010
:104AB00060E079E08DE390E0A70196010E946B2D04
:104AC0002150310941095109569547953795279548
:104AD000211580E1380798F0E889F989108260E8AB
:104AE00074E88EE190E0A70196010E946B2D2150A1
:104AF0003109410951095695479537952795EC8518
:104B0000FD853083EE85FF852083188EEC89FD8935
:104B1000B082EA89FB89808180618083EA89FB8990
:104B2000808188608083EA89FB89808180688083B6
:104B3000EA89FB8980818F7D8083DF91CF91FF900F
:104B4000EF90DF90CF90BF9008951F920F920FB615
:104B50000F9211242F938F939F93EF93FF93E091E4
:104B60005306F09154068081E0915906F0915A065F
:104B700082FD12C0908180915C068F5F8F732091BF
:104B80005D06821751F0E0915C06F0E0ED5BF94FB5
:104B9000958F80935C0601C08081FF91EF919F917A
:104BA0008F912F910F900FBE0F901F9018951F920D
:104BB0000F920FB60F9211242F933F934F935F9351
:104BC0006F937F938F939F93AF93BF93EF93FF93D5
:104BD00083E496E00E949B24FF91EF91BF91AF91F7
:104BE0009F918F917F916F915F914F913F912F9105
:104BF0000F900FBE0F901F90189583E496E00E94CF
:104C0000602421E0892B09F420E0822F089510927E
:104C100046061092450688EE93E0A0E0B0E080934F
:104C2000470690934806A0934906B0934A068AEA3D
:104C300092E0909344068093430685EC90E0909335
:104C4000500680934F0684EC90E090935206809338
:104C5000510680EC90E0909354068093530681ECCB
:104C600090E0909356068093550682EC90E09093E6
:104C700058068093570686EC90E090935A068093EE
:104C8000590610925C0610925D0610925E06109214
:104C90005F06089508950E947D220E944A260E9480
:104CA000A203CDE8D4E20E949F092097E1F30E947D
:104CB0008D24F9CF0C94032ECF92DF92EF92FF92C6
:104CC0000F931F93CF93DF936C017A01EB01E60EF4
:104CD000F71E00E010E0CE15DF0561F06991D60106
:104CE000ED91FC910190F081E02DC6010995080F2E
:104CF000191FF1CFC801DF91CF911F910F91FF9044
:104D0000EF90DF90CF9008956115710581F0DB0180
:104D10000D900020E9F7AD0141505109461B570B9A
:104D2000DC01ED91FC910280F381E02D099480E09B
:104D300090E008950C94842666EB72E00C9484262F
:104D40000F931F93CF93DF93EC010E9484268C0175
:104D5000CE010E949C26800F911FDF91CF911F9161
:104D60000F9108953F924F925F926F927F928F9230
:104D70009F92AF92BF92CF92DF92EF92FF920F93EA
:104D80001F93CF93DF9300D000D0CDB7DEB78B0158
:104D900029013A0190910F01981721F09F3F09F0E6
:104DA000DAC104C0E2ECF0E0349081C080930F01DE
:104DB000E2ECF0E0E491EF3F09F4CDC1E13031F1F4
:104DC000E23009F44BC0E11171C014BC15BC94B5BC
:104DD000926094BD95B5916095BD282F30E0F901A2
:104DE000E057FF4FE491F0E0EE0FFF1FE255FF4F59
:104DF000459154915093F0064093EF06F901E45821
:104E0000FF4F24912093EE06312C53C01092800066
:104E10001092810090918100986090938100909110
:104E20008100916090938100282F30E0F901E057D4
:104E3000FF4FE491F0E0EE0FFF1FE255FF4F459169
:104E400054915093E9064093E806F901E458FF4F66
:104E500024912093E706332433942BC01092B000A2
:104E60001092B1009091B00092609093B000909138
:104E7000B10091609093B100282F30E0F901E05724
:104E8000FF4FE491F0E0EE0FFF1FE255FF4F459119
:104E900054915093E2064093E106F901E458FF4F24
:104EA00024912093E00652E0352E03C03E2E37FCBD
:104EB00052C161E00E945D234801A12CB12C832DD9
:104EC0008D7F09F0C7C060E072E18AE790E0A5013C
:104ED00094010E948D2D29833A834B835C83690161
:104EE0007A0181E0C81AD108E108F1089FEFC916DC
:104EF000D104E104F10409F008F49AC060E472E41A
:104F00008FE090E0A50194010E948D2D69017A0146
:104F1000E1E0CE1AD108E108F108F2E03F1219C031
:104F20008FEFC816D104E104F10409F008F48AC037
:104F300060E970ED83E090E0A50194010E948D2D61
:104F400069017A0191E0C91AD108E108F10883E00A
:104F500001C082E0EFEFCE16D104E104F10409F0C4
:104F600008F467C068E478EE81E090E0A501940160
:104F70000E948D2D69017A01F1E0CF1AD108E10874
:104F8000F1083320E1F082E038121BC09FEFC91610
:104F9000D104E104F10409F008F4DBC064E274EF29
:104FA00080E090E0A50194010E948D2D69017A01B5
:104FB000E1E0CE1AD108E108F10885E003C083E002
:104FC00001C084E0FFEFCF16D104E104F10489F1C0
:104FD00080F162E17AE780E090E0A50194010E940F
:104FE0008D2D69017A0181E0C81AD108E108F10824
:104FF000311002C084E001C086E09FEFC916D104E1
:10500000E104F104B1F0A8F0C980DA80EB80FC8003
:105010009AE0F594E794D794C7949A95D1F7E1E094
:10502000CE1AD108E108F108332031F087E00BC037
:1050300081E0332011F007C085E095B5987F982B6B
:1050400095BD38C082E09091B100987F982B9093E5
:10505000B10030C060E072E18AE790E0A501940100
:105060000E948D2D69017A01F1E0CF1AD108E10883
:10507000F108C114D10481E0E806F10488F068E485
:1050800078EE81E090E0A50194010E948D2D6901E8
:105090007A0191E0C91AD108E108F10893E001C052
:1050A00091E0E1E03E1206C080918100887F892B6B
:1050B00080938100411451046104710471F0D8019E
:1050C000AA0FBB1FA30192010E94AC2D28EE33E072
:1050D00040E050E00E946B2D03C02FEF3FEFA9018D
:1050E000F1E03F16A1F082E0381619F1311033C01B
:1050F000C7BC2093F1063093F2064093F306509319
:10510000F40680916E00826080936E0024C0D0927D
:105110008900C09288002093EA063093EB06409302
:10512000EC065093ED0680916F00826080936F00D3
:1051300012C0C092B3002093E3063093E40640937C
:10514000E5065093E60680917000826080937000BF
:1051500002C084E078CF0F900F900F900F90DF91F6
:10516000CF911F910F91FF90EF90DF90CF90BF9064
:10517000AF909F908F907F906F905F904F903F90F7
:105180000895813039F018F0823051F0089510926E
:105190006E00089580916F008D7F80936F00089559
:1051A000809170008D7F8093700081E08093B000CB
:1051B0008091B100887F84608093B1001092B30029
:1051C0000895CF93C82F80910F018C1307C0E2EC94
:1051D000F0E084919FEF90930F0101C08FEF0E9448
:1051E000C12860E08C2FCF910C9496231F920F92D0
:1051F0000FB60F9211242F933F934F935F936F93AA
:105200007F938F939F93AF93BF93EF93FF9380917F
:10521000E3069091E406A091E506B091E606892B9D
:105220008A2B8B2B51F19091E006E091E106F091F1
:10523000E2068081892780838091E3069091E406CD
:10524000A091E506B091E606181619061A061B0687
:10525000C4F48091E3069091E406A091E506B09134
:10526000E6060197A109B1098093E3069093E4064D
:10527000A093E506B093E60604C080910F010E945A
:10528000E128FF91EF91BF91AF919F918F917F9115
:105290006F915F914F913F912F910F900FBE0F90A3
:1052A0001F901895FC01808191810C949B2ECF93C7
:1052B000DF93EC0188819981009711F00E949B2E69
:1052C000198218821D821C821B821A82DF91CF9163
:1052D00008950F931F93CF93DF93EC018B016F5FC2
:1052E0007F4F888199810E942A2F009731F09983FE
:1052F00088831B830A8381E001C080E0DF91CF9126
:105300001F910F910895CF93DF93EC0188819981CC
:10531000892B29F08A819B818617970760F4CE013B
:105320000E946929882341F08C819D81892B19F481
:10533000E881F981108281E0DF91CF910895EF92A9
:10534000FF920F931F93CF93DF93EC017B018A01B0
:10535000BA010E948329811104C0CE010E945729FD
:1053600007C01D830C83B701888199810E94243076
:10537000CE01DF91CF911F910F91FF90EF90089593
:10538000FC0111821082138212821582148261152F
:10539000710559F0FB0101900020E9F7AF01415080
:1053A0005109461B570B0C949F290895CF93DF9307
:1053B000EC01FB018617970761F06081718161152F
:1053C000710529F0448155810E949F2902C00E94E5
:1053D0005729CE01DF91CF910895FC0111821082EF
:1053E00013821282158214820C94D629CF93DF93F4
:1053F000EC016115710561F0FB0101900020E9F7F6
:10540000AF0141505109461B570B0E949F2902C012
:105410000E945729CE01DF91CF9108950F931F93DA
:10542000CF93DF93CDB7DEB729970FB6F894DEBFE1
:105430000FBECDBF8C01862FF8011182108213821E
:1054400012821582148250E0BE016F5F7F4F90E0A0
:105450000E94C630BE016F5F7F4FC8010E94F629CF
:1054600029960FB6F894DEBF0FBECDBFDF91CF9166
:105470001F910F9108950F931F93CF93DF93CDB793
:10548000DEB762970FB6F894DEBF0FBECDBF8C01BA
:10549000CB01F801118210821382128215821482CC
:1054A00050E0BE016F5F7F4F0E945F30BE016F5FB3
:1054B0007F4FC8010E94F62962960FB6F894DEBFAE
:1054C0000FBECDBFDF91CF911F910F9108950F9324
:1054D0001F93CF93DF93CDB7DEB7A2970FB6F894A3
:1054E000DEBF0FBECDBF8C01CB01BA01F801118226
:1054F0001082138212821582148230E0AE014F5F57
:105500005F4F0E947530BE016F5F7F4FC8010E94E0
:10551000F629A2960FB6F894DEBF0FBECDBFDF917D
:10552000CF911F910F910895EF92FF920F931F93C8
:10553000CF93DF93EC017B010C811D816115710517
:1055400011F480E016C04115510591F0040F151FAC
:10555000B8010E9483298823A1F3288139818C8195
:105560009D81B701820F931F0E9424301D830C83FD
:1055700081E0DF91CF911F910F91FF90EF900895FF
:10558000CF93DF93EC01FB014481558160817181F0
:105590000E94942A811103C0CE010E945729CE0196
:1055A000DF91CF910895FC01248135816217730743
:1055B00048F480819181009729F0FC01E60FF71FE4
:1055C0008081089580E008950C94D32A0F931F934F
:1055D000CF93DF93EB0141155105E9F02097D9F006
:1055E000FC016481758126173707A0F4621B730BD9
:1055F0008A01015011096017710708F48B01FC0141
:1056000060817181620F731FA801CE010E942B304F
:10561000C00FD11F1882DF91CF911F910F91089574
:10562000FC0180819181009711F00C94F42F60E0CF
:1056300070E0CB01089508955058BB27AA270ED0DB
:1056400075C166D130F06BD120F031F49F3F11F479
:105650001EF45BC10EF4E095E7FB51C1E92F77D151
:1056600080F3BA17620773078407950718F071F47F
:105670009EF58FC10EF4E0950B2EBA2FA02D0B01D5
:10568000B90190010C01CA01A0011124FF27591B87
:1056900099F0593F50F4503E68F11A16F040A22F8D
:1056A000232F342F4427585FF3CF469537952795FE
:1056B000A795F0405395C9F77EF41F16BA0B620BFD
:1056C000730B840BBAF09150A1F0FF0FBB1F661F44
:1056D000771F881FC2F70EC0BA0F621F731F841F87
:1056E00048F4879577956795B795F7959E3F08F0AD
:1056F000B3CF9395880F08F09927EE0F979587956C
:105700000895D9D008F481E008950CD00FC107D1D5
:1057100040F0FED030F021F45F3F19F0F0C051119D
:1057200039C1F3C014D198F39923C9F35523B1F3C8
:10573000951B550BBB27AA2762177307840738F000
:105740009F5F5F4F220F331F441FAA1FA9F333D05F
:105750000E2E3AF0E0E830D091505040E695001C13
:10576000CAF729D0FE2F27D0660F771F881FBB1FCF
:10577000261737074807AB07B0E809F0BB0B802DA9
:10578000BF01FF2793585F4F2AF09E3F510568F0F5
:10579000B6C000C15F3FECF3983EDCF38695779589
:1057A0006795B795F7959F5FC9F7880F911D9695F7
:1057B000879597F90895E1E0660F771F881FBB1F53
:1057C000621773078407BA0720F0621B730B840B00
:1057D000BA0BEE1F88F7E095089504D06894B111D4
:1057E000D9C00895BCD088F09F5790F0B92F992761
:1057F000B751A0F0D1F0660F771F881F991F1AF0DC
:10580000BA95C9F712C0B13081F0C3D0B1E00895A4
:10581000C0C0672F782F8827B85F39F0B93FCCF325
:10582000869577956795B395D9F73EF490958095D1
:10583000709561957F4F8F4F9F4F0895E89409C0F1
:1058400097FB3EF490958095709561957F4F8F4FB3
:105850009F4F9923A9F0F92F96E9BB279395F695C9
:10586000879577956795B795F111F8CFFAF4BB0F47
:1058700011F460FF1BC06F5F7F4F8F4F9F4F16C0AB
:10588000882311F096E911C0772321F09EE8872F35
:10589000762F05C0662371F096E8862F70E060E0F1
:1058A0002AF09A95660F771F881FDAF7880F96956A
:1058B000879597F90895990F0008550FAA0BE0E80E
:1058C000FEEF16161706E807F907C0F012161306C2
:1058D000E407F50798F0621B730B840B950B39F402
:1058E0000A2661F0232B242B252B21F408950A2668
:1058F00009F4A140A6958FEF811D811D089597F9A8
:105900009F6780E870E060E008959FEF80EC089565
:1059100000240A941616170618060906089500248E
:105920000A9412161306140605060895092E039408
:10593000000C11F4882352F0BB0F40F4BF2B11F47C
:1059400060FF04C06F5F7F4F8F4F9F4F089557FDDB
:105950009058440F551F59F05F3F71F04795880FDD
:1059600097FB991F61F09F3F79F087950895121674
:1059700013061406551FF2CF4695F1DF08C0161620
:1059800017061806991FF1CF8695710561050894D1
:105990000895E894BB2766277727CB0197F90895E8
:1059A0000BD0C4CFB5DF28F0BADF18F0952309F08B
:1059B000A6CFABCF1124EECFCADFA0F3959FD1F3D2
:1059C000950F50E0551F629FF001729FBB27F00DAD
:1059D000B11D639FAA27F00DB11DAA1F649F662702
:1059E000B00DA11D661F829F2227B00DA11D621F51
:1059F000739FB00DA11D621F839FA00D611D221F0B
:105A0000749F3327A00D611D231F849F600D211DEE
:105A1000822F762F6A2F11249F5750408AF0E1F091
:105A200088234AF0EE0FFF1FBB1F661F771F881FDA
:105A300091505040A9F79E3F510570F060CFAACF1A
:105A40005F3FECF3983EDCF3869577956795B795C5
:105A5000F795E7959F5FC1F7FE2B880F911D9695EF
:105A6000879597F90895DB018F939F930E94AC2D42
:105A7000BF91AF91A29F800D911DA39F900DB29FEA
:105A8000900D11240895AA1BBB1B51E107C0AA1F4A
:105A9000BB1FA617B70710F0A61BB70B881F991FCF
:105AA0005A95A9F780959095BC01CD01089597FB73
:105AB000072E16F4009407D077FD09D00E94432DDD
:105AC00007FC05D03EF4909581959F4F0895709501
:105AD00061957F4F0895A1E21A2EAA1BBB1BFD0101
